:100000000C9432000C94A6020C944F000C944F00F8
:100010000C944F000C944F000C944F000C944F0024
:100020000C944F000C944F000C9466000C944F00FD
:100030000C944F000C94E6020C941D030C944F009A
:100040000C944F000C944F000C944F000C944F00F4
:100050000C944F00C0F9A4B0999282D8809000000F
:100060000000000011241FBECFE5D8E0DEBFCDBFE9
:1000700010E0A0E6B0E0EAE0F8E002C005900D92E2
:10008000A436B107D9F720E0A4E6B0E001C01D9284
:10009000AA3BB207E1F70E9444020C9403040C94BB
:1000A00000008FEF87BB88BB8AB38F608ABB8BB39E
:1000B0008F608BBB83B7886083BF83B7856083BF46
:1000C00086E28CBF89B7826089BF08951F920F9224
:1000D0000FB60F9211248F93EF93FF9380916000DE
:1000E00080958BBB80916000813019F4E0916900AC
:1000F00013C0823041F4E0916A00F0E0EC5AFF4F07
:10010000E491EF770DC0843019F4E0916B0004C0E6
:10011000883039F4E0916800F0E0EC5AFF4FE49148
:10012000E8BB80916000880F803109F481E0809302
:100130006000FF91EF918F910F900FBE0F901F9075
:100140001895BC0180E49FE10E94AF03862F6031C7
:1001500038F07727CB01409797FD019695958795C5
:1001600080B9089584EA86BF06B607FEFDCF0895DC
:1001700084E986BF06B604FCFDCF089583B984E800
:1001800086BF06B607FEFDCF089520E4829FC0011A
:100190001124846886BF06B607FEFDCF83B108959B
:1001A000FF920F931F93CF93DF93082F162FC42F27
:1001B000F22ED32F0E94B200802F0E94BE00812F0A
:1001C0000E94BE000F2D1D2FCC2339F0F801819124
:1001D0008F010E94BE00C150F7CFDF91CF911F91D8
:1001E0000F91FF900C94B800FF920F931F93CF9341
:1001F000DF93182F062FC42FF22ED32F0E94B200A8
:10020000812F0E94BE00802F0E94BE000E94B2007B
:1002100081E0810F0E94BE00C1500F2D1D2FCF3FE6
:1002200059F081E0C11101C080E00E94C500F801D1
:1002300081938F01C150F3CFDF91CF911F910F9127
:10024000FF900C94B800982F92959F708F702AE0C1
:10025000929F800D112408956AE00E94A303292F24
:1002600030E1839FC0011124822B0895CF938091A8
:1002700072000E942301C82F809171000E94230107
:10028000282FCA3028F410926900C0936A0008C071
:100290008C2F6AE00E94A3038093690090936A0008
:1002A0002A3028F410926B002093680008C0822F37
:1002B0006AE00E94A30380936B0090936800CF9143
:1002C00008959B9B0AC09C9B0AC09D9B0AC09E9B55
:1002D0000AC09F9B0AC080E0089588E0089580E1ED
:1002E000089580E2089580E4089580E8089592B327
:1002F000611102C0892B02C08095892382BB0895B9
:100300000E94610190916400923029F4882309F4DD
:100310009DC0969878C0803209F44BC028F488308C
:1003200051F0803131F10895803409F452C08038A1
:1003300009F45FC00895809162008D7F09F086C046
:1003400080916600811109C0809161008F5F68E132
:100350000E94A3039093610070C0813009F06DC0CA
:10036000809165008F5F6CE30E94A303909365000A
:1003700064C0809162008D7F09F068C08091660042
:1003800081110AC080916100882311F0815001C061
:1003900087E18093610051C0813009F04EC08091A7
:1003A0006500882311F0815001C08BE380936500C4
:1003B00044C0809162008D7F09F048C08091660042
:1003C000811104C081E08093660037C010926600FE
:1003D00034C080916200813029F038F0823069F5B4
:1003E00081E004C01092620028C082E08093620025
:1003F00024C080916200823049F0911104C081E0F4
:10040000809364001AC01092640017C010926F00AD
:1004100010927000809165000E942C018093710001
:10042000809161000E942C01809372002FE630E0E1
:1004300044E061E082EA0E94D0002FEF82E597E07D
:10044000215080409040E1F700C000000895809165
:100450006400882311F0959801C0959A80916200FC
:10046000813011F4909801C0909A809162008111BE
:1004700002C0919801C0919A80916200823011F47B
:1004800093980895939A089584B3877084BB85B335
:10049000886F85BB8E9A969881B38B6381BB84E607
:1004A00090E00E94A1008A98929A85B7826085BFE9
:1004B0008BB780648BBF0E94510078942FE630E0A8
:1004C00044E061E082EA0E94F4000E943601C2E04A
:1004D0000E94800180916200813039F5809167002F
:1004E000882389F12FE630E044E061E082EA0E944F
:1004F000F4000E9436011092670080916400813000
:1005000011F5809161000E942C0190917200891375
:100510001AC0809165000E942C019091710089138E
:1005200012C0C0936400969A0EC0809161000E9430
:100530002C0180937200809165000E942C018093B1
:1005400071000E9436010E942702C2CF1F920F92B3
:100550000FB60F9211248F939F93809167008F5F46
:100560008093670092B380E1892782BB9F918F912E
:100570000F900FBE0F901F9018955D9BFECF8CB90A
:1005800008955F9BFECF8CB1089590BD89B988E135
:100590008AB986E880BD8AB181698AB910928500DE
:1005A00008959091830080918400981769F080915C
:1005B00084008F5F8F7180938400E0918400F0E06D
:1005C000E656FF4F8081089580E008951F920F92B4
:1005D0000FB60F9211248F939F93EF93FF938CB1DB
:1005E000E0918300EF5FEF7190918400E91759F07B
:1005F000E0938300F0E0E656FF4F80838D3019F4DE
:1006000081E080938500FF91EF919F918F910F90F2
:100610000FBE0F901F90189590916C009F5F9F7078
:1006200020916E009217E1F3E92FF0E0ED58FF4FB3
:10063000808390936C00559A08951F920F920FB685
:100640000F9211248F939F93EF93FF9390916C00DF
:1006500080916E00981771F080916E008F5F8F709F
:1006600080936E00E0916E00F0E0ED58FF4F8081C6
:100670008CB901C05598FF91EF919F918F910F9088
:100680000FBE0F901F901895CF93DF93EC018991C7
:10069000882319F00E940C03FACFDF91CF910895BF
:1006A000CF93DF93CDB7DEB761970FB6F894DEBF77
:1006B0000FBECDBFAB01BE016F5F7F4F0E94C30372
:1006C000CE0101960E94440361960FB6F894DEBFF6
:1006D0000FBECDBFDF91CF91089510926D000E94A3
:1006E000D102882371F08D30D1F3E0916D00F0E0FC
:1006F000EA57FF4F808380916D008F5F80936D007C
:10070000EECF109285000895FC01382F2E2F281B64
:1007100041914111FBCF40916D00421312C0E82F6F
:10072000E31B20916D00E21750F4009751F0F0E0C8
:10073000EA57FF4F4081FC012191CF01EECF81E0CC
:10074000089580E00895991B79E004C0991F9617D9
:1007500008F0961B881F7A95C9F780950895AA1B03
:10076000BB1B51E107C0AA1FBB1FA617B70710F09C
:10077000A61BB70B881F991F5A95A9F780959095CE
:10078000BC01CD0108954532510520F4423010F0EE
:100790000C94CE03FB011082CB010895BB274A3095
:1007A00031F4992322F4BDE2909581959F4F0C94EA
:1007B000DA03BB27FB015527AA27880F991FAA1F19
:1007C000A41710F0A41B83955051B9F7A05DAA336C
:1007D00008F0A95DA193009779F7B111B193119237
:1007E000CB010C94F303DC01FC01672F719177239B
:1007F000E1F7329704C07C916D9370836291AE17DC
:0A080000BF07C8F30895F894FFCF76
:04080A00010A0100DE
:00000001FF
