:100000000C942A000C9447000C9447000C94470071
:100010000C9447000C9447000C9447000C94470044
:100020000C94DD010C9447000C9447000C9447009D
:100030000C9447000C9447000C9447000C94470024
:100040000C9447000C9447000C9447000C94470014
:100050000C94470011241FBECFE5D8E0DEBFCDBF12
:1000600010E0A0E6B0E0E2EAF5E002C005900D92F3
:10007000A236B107D9F720E0A2E6B0E001C01D9298
:10008000A636B207E1F70E944F020C94CF020C94FF
:100090000000A59AA49AA39AA29A089583B382FB1A
:1000A000882780F99B9982609C9984609D998860DB
:1000B000089580FF02C0AA9A01C0AA9881FF02C0D9
:1000C000AB9A01C0AB9882FF02C0AC9A01C0AC9859
:1000D00083FF02C0AD9A0895AD980895CF93DF9342
:1000E000A598A498A398A298C19AC09A0E944E007D
:1000F00090E1899FE0011124C098C09A0E944E00AF
:10010000C0988C2BDF91CF910895C2980C946E000B
:10011000CF93C82F0E944900C198C09A8C2F829516
:100120008F700E945900C098C09A8C2F0E9459006D
:10013000C0980E94850087FDFCCFCF910895C2989A
:1001400090E00C948800C29A90E00C94880081E0C2
:100150000C949F008EE00C949F008FE00C949F0005
:100160008CE00C949F000C94B000CF93DF93EC01D3
:100170008991882341F090E8980F983008F48770AF
:100180000E94A300F5CFDF91CF910895CF93DF9325
:10019000EC01FE018491882349F090E8980F983093
:1001A00008F487700E94A3002196F3CFDF91CF91CE
:1001B0000895CF93DF93EC0121960E94B7029FEF41
:1001C000980F9E3F48F490E8980F983008F4877095
:1001D0000E94A300CE01EFCFDF91CF910895CF937E
:1001E000DF93CDB7DEB761970FB6F894DEBF0FBED1
:1001F000CDBF4AE050E0BE016F5F7F4F0E94870293
:100200000E94B50061960FB6F894DEBF0FBECDBF59
:10021000DF91CF910895CF93DF93CDB7DEB761978C
:100220000FB6F894DEBF0FBECDBF40E150E0BE0177
:100230006F5F7F4F0E9487020E94B50061960FB6E4
:10024000F894DEBF0FBECDBFDF91CF9108950F931D
:100250001F93CF93DF938B018770880F880F880FD0
:10026000805C0E949F00E801085F1F4F89910E94F7
:10027000A300C017D107D1F7DF91CF911F910F9144
:1002800008950F931F93CF93DF938B018770880F8F
:10029000880F880F805C0E949F00C0E0D0E0F801CA
:1002A000EC0FFD1F84910E94A3002196C830D10558
:1002B000B1F7DF91CF911F910F910895EF92FF92C7
:1002C0000F931F93CF93DF93EB018770880F880FF5
:1002D000880F805C0E949F008E01085F1F4F7E0187
:1002E0008FEFE81AF80ACE010E94B7020E94A3001D
:1002F000E701E016F10699F7DF91CF911F910F9179
:10030000FF90EF900895823031F0833031F08130EA
:1003100029F480E403C080E101C080E56058860FC5
:100320000C949F000E944900BA9AB89AB99AC29A4E
:10033000C09AC19A8FE295E70197F1F700C00000DB
:10034000C098C298C198C09A83E00E945900C09892
:1003500087E090E20197F1F700C00000C09A83E0C7
:100360000E945900C09887EC90E00197F1F700C017
:100370000000C09A83E00E945900C09887EC90E08A
:100380000197F1F700C00000C09A82E00E94590076
:10039000C09887EC90E00197F1F700C0000088E278
:1003A0000E949F0088E00E949F008CE00E949F00B6
:1003B00086E00E949F000C94A7001F920F920FB638
:1003C0000F9211248F939F939BB381E089278BBB5E
:1003D000809165008F5F80936500809165008C330C
:1003E00090F010926500809164008F5F80936400AC
:1003F000809164008C3338F0109264008091630027
:100400008F5F80936300809162008F5F80936200B2
:100410009F918F910F900FBE0F901F9018951F9373
:10042000CF93DF93182FD62FC42F0E94A7001A3026
:1004300020F480E090E00E94EF00812F90E00E9485
:10044000EF0080E690E00E94B500DA3020F480E012
:1004500090E00E94EF008D2F90E00E94EF0080E678
:1004600090E00E94B500CA3020F480E090E00E9445
:10047000EF008C2F90E0DF91CF911F910C94EF0053
:10048000C9990BC02FEF81EE94E02150804090403D
:10049000E1F700C0000081E0089580E00895D09A5F
:1004A000D198D99A0E9492018EB588608EBD8EB582
:1004B00084608EBD81E19AE79BBD8ABD89B7886063
:1004C00089BF789480916200882351F04091650043
:1004D00060916400809163000E940F02109262009C
:1004E0000E944002813071F709B603FE04C089B74B
:1004F000877F89BFE7CF89B7886089BF1092650081
:1005000010926400109263001DBC1CBCDBCF45320E
:10051000510520F4423010F00C949202FB0110823D
:10052000CB010895BB274A3031F4992322F4BDE270
:10053000909581959F4F0C949E02BB27FB015527F8
:10054000AA27880F991FAA1FA41710F0A41B839530
:100550005051B9F7A05DAA3308F0A95DA1930097A7
:1005600079F7B111B1931192CB010C94BF02E199CB
:10057000FECF9FBB8EBBE09A99278DB30895DC0117
:10058000FC01672F71917723E1F7329704C07C91CA
:100590006D9370836291AE17BF07C8F30895F89406
:0205A000FFCF8B
:0205A2003A001D
:00000001FF
